:100000000C9434000C943E000C943E000C943E0082
:100010000C943E000C943E000C943E000C943E0068
:100020000C943E000C943E000C943E000C943E0058
:100030000C943E000C943E000C943E000C943E0048
:100040000C943E000C943E000C9463000C943E0013
:100050000C943E000C943E000C943E000C943E0028
:100060000C943E000C943E0011241FBECFEFD4E050
:10007000DEBFCDBF0E9483000C94A6000C9400004C
:100080009093C5008093C400E1ECF0E0808188612A
:10009000808386E08093C200808180688083089599
:1000A000FC0106C09091C00095FFFCCF8093C60074
:1000B00081918111F7CF08959091C00095FFFCCFF9
:1000C0008093C60008951F920F920FB60F921124CD
:1000D0008F938091C600880F87BD2B9A8F910F90C8
:1000E0000FBE0F901F90189584B5806884BD84B5AD
:1000F000836084BD85B5816085BD569A17BC08951F
:10010000880F87BD0895239A83E390E00E94400002
:100110000E947400789488E790E00E945C002FEFC2
:1001200084E39CE0215080409040E1F700C0000053
:1001300084E790E00E945C002FEF84E39CE0215074
:1001400080409040E1F700C00000E5CFF894FFCF79
:00000001FF
