:100000000C9434000C9449000C9449000C94490061
:100010000C9449000C9449000C9449000C9449003C
:100020000C9449000C9449000C9449000C9449002C
:100030000C9449000C9449000C9449000C9449001C
:100040000C9449000C9449000C9449000C9449000C
:100050000C9449000C9449000C9449000C944900FC
:100060000C9449000C94490011241FBECFEFD4E03A
:10007000DEBFCDBF11E0A0E0B1E0ECE1F1E002C0F5
:1000800005900D92A231B107D9F70E9462000C943D
:100090008C000C9400009093C5008093C40088E00D
:1000A0008093C10086E08093C2000895FC0106C0E1
:1000B0009091C00095FFFCCF8093C6008191811183
:1000C000F7CF089583E390E00E944B002FE78AE189
:1000D00096E0215080409040E1F700C0000080E0B1
:1000E00091E00E9456002FE78AE196E0215080407F
:1000F0009040E1F700C000008DE091E00E945600C2
:100100002FE78AE196E0215080409040E1F700C05F
:0C01100000008FE091E0E5CFF894FFCFF5
:10011C00436F6E6E6563746564210D0A005500545F
:02012C000000D1
:00000001FF
