:100000000C9434000C943E000C943E000C943E0082
:100010000C943E000C943E000C943E000C943E0068
:100020000C943E000C943E000C943E000C943E0058
:100030000C943E000C943E000C943E000C943E0048
:100040000C943E000C943E000C943E000C943E0038
:100050000C943E000C943E000C943E000C943E0028
:100060000C943E000C943E0011241FBECFEFD4E050
:10007000DEBFCDBF0E9440000C9456000C940000DF
:10008000239A2B9A2FEF89E698E1215080409040E7
:10009000E1F700C0000015B82FEF89E698E1215084
:1000A00080409040E1F700C00000EBCFF894FFCF14
:00000001FF
